{
  "contractName": "Catalog",
  "abi": [
    {
      "constant": true,
      "inputs": [],
      "name": "nextSongIndexToAssign",
      "outputs": [
        {
          "name": "",
          "type": "uint256"
        }
      ],
      "payable": false,
      "stateMutability": "view",
      "type": "function"
    },
    {
      "constant": true,
      "inputs": [],
      "name": "nextChunkServerIndexToAssign",
      "outputs": [
        {
          "name": "",
          "type": "uint256"
        }
      ],
      "payable": false,
      "stateMutability": "view",
      "type": "function"
    },
    {
      "constant": false,
      "inputs": [
        {
          "name": "key1",
          "type": "bytes32"
        },
        {
          "name": "key2",
          "type": "bytes32"
        },
        {
          "name": "song",
          "type": "uint256"
        }
      ],
      "name": "revealChunks",
      "outputs": [],
      "payable": false,
      "stateMutability": "nonpayable",
      "type": "function"
    },
    {
      "constant": false,
      "inputs": [
        {
          "name": "hostname",
          "type": "bytes32"
        }
      ],
      "name": "chunkServerJoin",
      "outputs": [],
      "payable": false,
      "stateMutability": "nonpayable",
      "type": "function"
    },
    {
      "constant": false,
      "inputs": [
        {
          "name": "cost",
          "type": "uint256"
        },
        {
          "name": "format",
          "type": "uint256"
        },
        {
          "name": "filename",
          "type": "bytes32"
        },
        {
          "name": "title",
          "type": "bytes32"
        },
        {
          "name": "artist",
          "type": "bytes32"
        },
        {
          "name": "album",
          "type": "bytes32"
        },
        {
          "name": "genre",
          "type": "bytes32"
        },
        {
          "name": "year",
          "type": "uint256"
        },
        {
          "name": "length",
          "type": "uint256"
        },
        {
          "name": "numChunks",
          "type": "uint256"
        }
      ],
      "name": "listSong",
      "outputs": [
        {
          "name": "",
          "type": "uint256"
        }
      ],
      "payable": false,
      "stateMutability": "nonpayable",
      "type": "function"
    },
    {
      "constant": false,
      "inputs": [
        {
          "name": "randomness",
          "type": "uint256"
        },
        {
          "name": "song",
          "type": "uint256"
        }
      ],
      "name": "chunkServerSubmitRandomness",
      "outputs": [],
      "payable": false,
      "stateMutability": "nonpayable",
      "type": "function"
    },
    {
      "inputs": [],
      "payable": false,
      "stateMutability": "nonpayable",
      "type": "constructor"
    }
  ],
  "bytecode": "0x6060604052600080556000600155341561001857600080fd5b6106af806100276000396000f300606060405260043610610078576000357c0100000000000000000000000000000000000000000000000000000000900463ffffffff1680631cc420781461007d5780637b2d3833146100a6578063a457bf62146100cf578063c5425f031461010c578063cf0c132814610133578063cf678b74146101cf575b600080fd5b341561008857600080fd5b6100906101fb565b6040518082815260200191505060405180910390f35b34156100b157600080fd5b6100b9610201565b6040518082815260200191505060405180910390f35b34156100da57600080fd5b61010a60048080356000191690602001909190803560001916906020019091908035906020019091905050610207565b005b341561011757600080fd5b6101316004808035600019169060200190919050506102f4565b005b341561013e57600080fd5b6101b960048080359060200190919080359060200190919080356000191690602001909190803560001916906020019091908035600019169060200190919080356000191690602001909190803560001916906020019091908035906020019091908035906020019091908035906020019091905050610364565b6040518082815260200191505060405180910390f35b34156101da57600080fd5b6101f96004808035906020019091908035906020019091905050610473565b005b60005481565b60015481565b60006003600083815260200190815260200160002090508060020160019054906101000a900460ff16151561023b57600080fd5b8060020160009054906101000a900460ff1615151561025957600080fd5b3373ffffffffffffffffffffffffffffffffffffffff168160000160009054906101000a900473ffffffffffffffffffffffffffffffffffffffff1673ffffffffffffffffffffffffffffffffffffffff161415156102b757600080fd5b838160060181600019169055508281600701816000191690555060018160020160006101000a81548160ff02191690831515021790555050505050565b6000600560003373ffffffffffffffffffffffffffffffffffffffff1673ffffffffffffffffffffffffffffffffffffffff16815260200190815260200160002090506000816002015414151561034a57600080fd5b818160010181600019169055504281600201819055505050565b60008060008054915060016000808282540192505081905550600360008381526020019081526020016000209050338160000160006101000a81548173ffffffffffffffffffffffffffffffffffffffff021916908373ffffffffffffffffffffffffffffffffffffffff1602179055508c816001018190555083816008018190555060018160020160016101000a81548160ff0219169083151502179055508b81600901819055508a81600a0181600019169055508981600b0181600019169055508881600d0181600019169055508781600c0181600019169055508681600e0181600019169055508581600f018190555084816010018190555081925050509a9950505050505050505050565b600080600080600560003373ffffffffffffffffffffffffffffffffffffffff1673ffffffffffffffffffffffffffffffffffffffff1681526020019081526020016000209350600084600201541115156104cd57600080fd5b6003600086815260200190815260200160002092508260020160019054906101000a900460ff1615156104ff57600080fd5b6003836012015410151561051257600080fd5b8260110180548060010182816105289190610632565b9160005260206000209001600033909190916101000a81548173ffffffffffffffffffffffffffffffffffffffff021916908373ffffffffffffffffffffffffffffffffffffffff16021790555050600183601201600082825401925050819055508583601301541883601301819055506003836012015410151561062a57826008015483601301548115156105ba57fe5b069150826008015461040084601301540a8115156105d457fe5b06905082600301828154811015156105e857fe5b906000526020600020900154836004018160001916905550826003018181548110151561061157fe5b9060005260206000209001548360050181600019169055505b505050505050565b81548183558181151161065957818360005260206000209182019101610658919061065e565b5b505050565b61068091905b8082111561067c576000816000905550600101610664565b5090565b905600a165627a7a72305820357a5eafd1e584e70ebbfac30bccf9e6c57162013e75ef93c22a6a5609674b5d0029",
  "source": "pragma solidity ^0.4.18;\n\ncontract Catalog {\n\n  uint constant quorum = 3;\n  uint public nextSongIndexToAssign = 0;\n  uint public nextChunkServerIndexToAssign = 0;\n\n  mapping (uint => address) songIndexToOwner;\n  mapping (uint => Listing) songIndexToListing;\n  mapping (uint => ChunkServer) indexToChunkServer;\n  mapping (address => ChunkServer) addressToChunkServer;\n\n  struct ChunkServer {\n    address account;\n    bytes32 hostname;\n    uint256 lastSeenTime;\n  }\n\n  struct Listing {\n    address seller;\n    uint256 cost;\n    bool isAvailable;\n    bool isListed;\n    bool isRandomnessReady;\n    bytes32[] chunkHashes;\n    bytes32 previewChunk1Hash;\n    bytes32 previewChunk2Hash;\n    bytes32 chunk1Key;\n    bytes32 chunk2Key;\n    uint numChunks;\n\n    /* Song metadata */\n    // 0 is mp3\n    uint format;\n    bytes32 filename;\n\n    bytes32 title;\n    bytes32 album;\n    bytes32 artist;\n    bytes32 genre;\n    uint year;\n    uint length;\n\n    // not needed for now\n    //bytes32 albumArtist;\n    //bytes32 composer;\n    //int trackNum;\n    //int discNum;\n\n    /* ChunkServer info */\n    address[] csSubmittedRandomness;\n    uint numRandomness;\n    uint256 randomness;\n  }\n\n  function Catalog() public {\n\n  }\n\n  function listSong(uint256 cost, uint format, bytes32 filename, bytes32 title,\n    bytes32 artist, bytes32 album, bytes32 genre, uint year, uint length,\n    uint numChunks)\n    public returns (uint) {\n    uint newIndex = nextSongIndexToAssign;\n    nextSongIndexToAssign += 1;\n    Listing storage listing = songIndexToListing[newIndex];\n\n    // song has already been listed\n    //require(!isListed);\n    listing.seller = msg.sender;\n    listing.cost = cost;\n    listing.numChunks = numChunks;\n\n    listing.isListed = true;\n    listing.format = format;\n    listing.filename = filename;\n    listing.title = title;\n    listing.artist = artist;\n    listing.album = album;\n    listing.genre = genre;\n    listing.year = year;\n    listing.length = length;\n    return newIndex;\n  }\n\n  function chunkServerJoin(bytes32 hostname) public {\n    ChunkServer storage server = addressToChunkServer[msg.sender];\n    require(server.lastSeenTime == 0x0);\n    server.hostname = hostname;\n    server.lastSeenTime = now;\n  }\n\n  function chunkServerSubmitRandomness(uint256 randomness, uint song) public {\n    ChunkServer storage server = addressToChunkServer[msg.sender];\n    require(server.lastSeenTime > 0x0);\n    Listing storage listing = songIndexToListing[song];\n    require(listing.isListed);\n    require(listing.numRandomness < quorum);\n    listing.csSubmittedRandomness.push(msg.sender);\n    listing.numRandomness += 1;\n    listing.randomness = listing.randomness ^ randomness;\n\n    if (listing.numRandomness >= quorum) {\n      uint256 chunk1 = listing.randomness % listing.numChunks;\n      // bitshift for now I guess\n      uint256 chunk2 = (listing.randomness ** 1024) % listing.numChunks;\n\n      listing.previewChunk1Hash = listing.chunkHashes[chunk1];\n      listing.previewChunk2Hash = listing.chunkHashes[chunk2];\n    }\n\n  }\n\n  function revealChunks(bytes32 key1, bytes32 key2, uint song) public {\n    Listing storage listing = songIndexToListing[song];\n    require(listing.isListed);\n    require(!listing.isAvailable);\n    require(listing.seller == msg.sender);\n\n    listing.chunk1Key = key1;\n    listing.chunk2Key = key2;\n\n    // TODO: should make sure chunkservers have the chunks first\n    listing.isAvailable = true;\n  }\n\n}\n",
  "sourcePath": "/Users/bekher/Development/avocado/contracts/Catalog.sol",
  "compiler": {
    "name": "solc",
    "version": "0.4.18+commit.9cf6e910.Emscripten.clang"
  },
  "schemaVersion": "1.0.1",
  "updatedAt": "2018-05-07T15:01:45.673Z"
}