{
  "contractName": "Catalog",
  "abi": [
    {
      "constant": true,
      "inputs": [],
      "name": "nextSongIndexToAssign",
      "outputs": [
        {
          "name": "",
          "type": "uint256"
        }
      ],
      "payable": false,
      "stateMutability": "view",
      "type": "function"
    },
    {
      "constant": true,
      "inputs": [
        {
          "name": "cost",
          "type": "uint8"
        },
        {
          "name": "format",
          "type": "uint8"
        },
        {
          "name": "filename",
          "type": "bytes32"
        },
        {
          "name": "title",
          "type": "bytes32"
        },
        {
          "name": "artist",
          "type": "bytes32"
        },
        {
          "name": "album",
          "type": "bytes32"
        },
        {
          "name": "genre",
          "type": "bytes32"
        },
        {
          "name": "year",
          "type": "uint8"
        },
        {
          "name": "length",
          "type": "uint8"
        },
        {
          "name": "numChunks",
          "type": "uint8"
        }
      ],
      "name": "nextChunkServerIndexToAssign",
      "outputs": [
        {
          "name": "",
          "type": "uint256"
        }
      ],
      "payable": false,
      "stateMutability": "view",
      "type": "function"
    },
    {
      "constant": false,
      "inputs": [
        {
          "name": "key1",
          "type": "bytes32"
        },
        {
          "name": "key2",
          "type": "bytes32"
        },
        {
          "name": "song",
          "type": "uint256"
        }
      ],
      "name": "revealChunks",
      "outputs": [
        {
          "name": "",
          "type": "uint256"
        }
      ],
      "payable": false,
      "stateMutability": "nonpayable",
      "type": "function"
    },
    {
      "constant": false,
      "inputs": [
        {
          "name": "hostname",
          "type": "bytes32"
        },
        {
          "name": "key2",
          "type": "bytes32"
        },
        {
          "name": "song",
          "type": "uint256"
        }
      ],
      "name": "chunkServerJoin",
      "outputs": [],
      "payable": false,
      "stateMutability": "nonpayable",
      "type": "function"
    },
    {
      "constant": false,
      "inputs": [
        {
          "name": "cost",
          "type": "uint32"
        },
        {
          "name": "format",
          "type": "uint32"
        },
        {
          "name": "filename",
          "type": "bytes32"
        },
        {
          "name": "title",
          "type": "bytes32"
        },
        {
          "name": "artist",
          "type": "bytes32"
        },
        {
          "name": "album",
          "type": "bytes32"
        },
        {
          "name": "genre",
          "type": "bytes32"
        },
        {
          "name": "year",
          "type": "uint32"
        },
        {
          "name": "length",
          "type": "uint32"
        },
        {
          "name": "numChunks",
          "type": "uint32"
        }
      ],
      "name": "listSong",
      "outputs": [
        {
          "name": "",
          "type": "uint256"
        }
      ],
      "payable": false,
      "stateMutability": "nonpayable",
      "type": "function"
    },
    {
      "constant": false,
      "inputs": [
        {
          "name": "randomness",
          "type": "uint256"
        },
        {
          "name": "song",
          "type": "uint256"
        }
      ],
      "name": "chunkServerSubmitRandomness",
      "outputs": [],
      "payable": false,
      "stateMutability": "nonpayable",
      "type": "function"
    },
    {
      "inputs": [],
      "payable": false,
      "stateMutability": "nonpayable",
      "type": "constructor"
    }
  ],
  "bytecode": "0x6060604052600080556000600155341561001857600080fd5b610779806100276000396000f300606060405260043610610078576000357c0100000000000000000000000000000000000000000000000000000000900463ffffffff1680631cc420781461007d5780637b2d3833146100a6578063a457bf62146100cf578063c5425f031461010c578063ce9da53a14610133578063cf678b74146101ed575b600080fd5b341561008857600080fd5b610090610219565b6040518082815260200191505060405180910390f35b34156100b157600080fd5b6100b961021f565b6040518082815260200191505060405180910390f35b34156100da57600080fd5b61010a60048080356000191690602001909190803560001916906020019091908035906020019091905050610225565b005b341561011757600080fd5b610131600480803560001916906020019091905050610312565b005b341561013e57600080fd5b6101d7600480803563ffffffff1690602001909190803563ffffffff16906020019091908035600019169060200190919080356000191690602001909190803560001916906020019091908035600019169060200190919080356000191690602001909190803563ffffffff1690602001909190803563ffffffff1690602001909190803563ffffffff16906020019091905050610382565b6040518082815260200191505060405180910390f35b34156101f857600080fd5b61021760048080359060200190919080359060200190919050506104eb565b005b60005481565b60015481565b60006003600083815260200190815260200160002090508060020160019054906101000a900460ff16151561025957600080fd5b8060020160009054906101000a900460ff1615151561027757600080fd5b3373ffffffffffffffffffffffffffffffffffffffff168160000160009054906101000a900473ffffffffffffffffffffffffffffffffffffffff1673ffffffffffffffffffffffffffffffffffffffff161415156102d557600080fd5b838160060181600019169055508281600701816000191690555060018160020160006101000a81548160ff02191690831515021790555050505050565b6000600560003373ffffffffffffffffffffffffffffffffffffffff1673ffffffffffffffffffffffffffffffffffffffff16815260200190815260200160002090506000816002015414151561036857600080fd5b818160010181600019169055504281600201819055505050565b60008060008054915060016000808282540192505081905550600360008381526020019081526020016000209050338160000160006101000a81548173ffffffffffffffffffffffffffffffffffffffff021916908373ffffffffffffffffffffffffffffffffffffffff1602179055508c63ffffffff1681600101819055508363ffffffff16816008018190555060018160020160016101000a81548160ff0219169083151502179055508b8160090160006101000a81548163ffffffff021916908363ffffffff1602179055508a81600a0181600019169055508981600b0181600019169055508881600d0181600019169055508781600c0181600019169055508681600e0181600019169055508581600f0160006101000a81548163ffffffff021916908363ffffffff1602179055508481600f0160046101000a81548163ffffffff021916908363ffffffff16021790555081925050509a9950505050505050505050565b600080600080600560003373ffffffffffffffffffffffffffffffffffffffff1673ffffffffffffffffffffffffffffffffffffffff16815260200190815260200160002093506000846002015411151561054557600080fd5b6003600086815260200190815260200160002092508260020160019054906101000a900460ff16151561057757600080fd5b60038360110160009054906101000a900463ffffffff1663ffffffff161015156105a057600080fd5b8260100180548060010182816105b691906106fc565b9160005260206000209001600033909190916101000a81548173ffffffffffffffffffffffffffffffffffffffff021916908373ffffffffffffffffffffffffffffffffffffffff1602179055505060018360110160008282829054906101000a900463ffffffff160192506101000a81548163ffffffff021916908363ffffffff16021790555085836012015418836012018190555060038360110160009054906101000a900463ffffffff1663ffffffff161015156106f4578260080154836012015481151561068457fe5b069150826008015461040084601201540a81151561069e57fe5b06905082600301828154811015156106b257fe5b90600052602060002090015483600401816000191690555082600301818154811015156106db57fe5b9060005260206000209001548360050181600019169055505b505050505050565b815481835581811511610723578183600052602060002091820191016107229190610728565b5b505050565b61074a91905b8082111561074657600081600090555060010161072e565b5090565b905600a165627a7a72305820ef8f5aaef0cbe494b3de001a6d495fcc02c44935242379c3bc09a32b8d7cf8460029",
  "source": "pragma solidity ^0.4.18;\n\ncontract Catalog {\n\n  uint constant quorum = 3;\n  uint public nextSongIndexToAssign = 0;\n  uint public nextChunkServerIndexToAssign = 0;\n\n  mapping (uint => address) songIndexToOwner;\n  mapping (uint => Listing) songIndexToListing;\n  mapping (uint => ChunkServer) indexToChunkServer;\n  mapping (address => ChunkServer) addressToChunkServer;\n\n  struct ChunkServer {\n    address account;\n    bytes32 hostname;\n    uint256 lastSeenTime;\n  }\n\n  struct Listing {\n    address seller;\n    uint256 cost;\n    bool isAvailable;\n    bool isListed;\n    bool isRandomnessReady;\n    bytes32[] chunkHashes;\n    bytes32 previewChunk1Hash;\n    bytes32 previewChunk2Hash;\n    bytes32 chunk1Key;\n    bytes32 chunk2Key;\n    uint numChunks;\n\n    /* Song metadata */\n    // 0 is mp3\n    uint32 format;\n    bytes32 filename;\n\n    bytes32 title;\n    bytes32 album;\n    bytes32 artist;\n    bytes32 genre;\n    uint32 year;\n    uint32 length;\n\n    // not needed for now\n    //bytes32 albumArtist;\n    //bytes32 composer;\n    //int trackNum;\n    //int discNum;\n\n    /* ChunkServer info */\n    address[] csSubmittedRandomness;\n    uint32 numRandomness;\n    uint256 randomness;\n  }\n\n  function Catalog() public {\n\n  }\n\n  function listSong(uint32 cost, uint32 format, bytes32 filename, bytes32 title,\n    bytes32 artist, bytes32 album, bytes32 genre, uint32 year, uint32 length,\n    uint32 numChunks)\n    public returns (uint) {\n    uint newIndex = nextSongIndexToAssign;\n    nextSongIndexToAssign += 1;\n    Listing storage listing = songIndexToListing[newIndex];\n\n    // song has already been listed\n    //require(!isListed);\n    listing.seller = msg.sender;\n    listing.cost = cost;\n    listing.numChunks = numChunks;\n\n    listing.isListed = true;\n    listing.format = format;\n    listing.filename = filename;\n    listing.title = title;\n    listing.artist = artist;\n    listing.album = album;\n    listing.genre = genre;\n    listing.year = year;\n    listing.length = length;\n    return newIndex;\n  }\n\n  function chunkServerJoin(bytes32 hostname) public {\n    ChunkServer storage server = addressToChunkServer[msg.sender];\n    require(server.lastSeenTime == 0x0);\n    server.hostname = hostname;\n    server.lastSeenTime = now;\n  }\n\n  function chunkServerSubmitRandomness(uint256 randomness, uint song) public {\n    ChunkServer storage server = addressToChunkServer[msg.sender];\n    require(server.lastSeenTime > 0x0);\n    Listing storage listing = songIndexToListing[song];\n    require(listing.isListed);\n    require(listing.numRandomness < quorum);\n    listing.csSubmittedRandomness.push(msg.sender);\n    listing.numRandomness += 1;\n    listing.randomness = listing.randomness ^ randomness;\n\n    if (listing.numRandomness >= quorum) {\n      uint256 chunk1 = listing.randomness % listing.numChunks;\n      // bitshift for now I guess\n      uint256 chunk2 = (listing.randomness ** 1024) % listing.numChunks;\n\n      listing.previewChunk1Hash = listing.chunkHashes[chunk1];\n      listing.previewChunk2Hash = listing.chunkHashes[chunk2];\n    }\n\n  }\n\n  function revealChunks(bytes32 key1, bytes32 key2, uint song) public {\n    Listing storage listing = songIndexToListing[song];\n    require(listing.isListed);\n    require(!listing.isAvailable);\n    require(listing.seller == msg.sender);\n\n    listing.chunk1Key = key1;\n    listing.chunk2Key = key2;\n\n    // TODO: should make sure chunkservers have the chunks first\n    listing.isAvailable = true;\n  }\n\n}\n",
  "sourcePath": "/Users/bekher/Development/avocado/contracts/Catalog.sol",
  "compiler": {
    "name": "solc",
    "version": "0.4.18+commit.9cf6e910.Emscripten.clang"
  },
  "schemaVersion": "1.0.1",
  "updatedAt": "2018-05-08T01:28:13.595Z"
}