{
  "contractName": "Catalog",
  "abi": [
    {
      "constant": true,
      "inputs": [
        {
          "name": "songId",
          "type": "uint32"
        }
      ],
      "name": "getListingMetadata",
      "outputs": [
        {
          "name": "",
          "type": "bytes32"
        },
        {
          "name": "",
          "type": "bytes32"
        },
        {
          "name": "",
          "type": "bytes32"
        },
        {
          "name": "",
          "type": "bytes32"
        },
        {
          "name": "",
          "type": "bytes32"
        },
        {
          "name": "",
          "type": "uint32"
        },
        {
          "name": "",
          "type": "uint32"
        }
      ],
      "payable": false,
      "stateMutability": "view",
      "type": "function"
    },
    {
      "constant": true,
      "inputs": [],
      "name": "nextSongIndexToAssign",
      "outputs": [
        {
          "name": "",
          "type": "uint32"
        }
      ],
      "payable": false,
      "stateMutability": "view",
      "type": "function"
    },
    {
      "constant": true,
      "inputs": [
        {
          "name": "song",
          "type": "uint32"
        }
      ],
      "name": "getPreview",
      "outputs": [
        {
          "name": "",
          "type": "bytes32"
        },
        {
          "name": "",
          "type": "bytes32"
        },
        {
          "name": "",
          "type": "bytes32"
        },
        {
          "name": "",
          "type": "bytes32"
        },
        {
          "name": "",
          "type": "bytes32[]"
        }
      ],
      "payable": false,
      "stateMutability": "view",
      "type": "function"
    },
    {
      "constant": true,
      "inputs": [],
      "name": "nextChunkServerIndexToAssign",
      "outputs": [
        {
          "name": "",
          "type": "uint32"
        }
      ],
      "payable": false,
      "stateMutability": "view",
      "type": "function"
    },
    {
      "constant": true,
      "inputs": [
        {
          "name": "song",
          "type": "uint32"
        }
      ],
      "name": "isListingAvailable",
      "outputs": [
        {
          "name": "",
          "type": "bool"
        }
      ],
      "payable": false,
      "stateMutability": "view",
      "type": "function"
    },
    {
      "constant": false,
      "inputs": [
        {
          "name": "randomness",
          "type": "uint32"
        },
        {
          "name": "song",
          "type": "uint32"
        }
      ],
      "name": "chunkServerSubmitRandomness",
      "outputs": [],
      "payable": false,
      "stateMutability": "nonpayable",
      "type": "function"
    },
    {
      "constant": false,
      "inputs": [
        {
          "name": "key1",
          "type": "bytes32"
        },
        {
          "name": "key2",
          "type": "bytes32"
        },
        {
          "name": "song",
          "type": "uint32"
        }
      ],
      "name": "revealChunks",
      "outputs": [],
      "payable": false,
      "stateMutability": "nonpayable",
      "type": "function"
    },
    {
      "constant": false,
      "inputs": [
        {
          "name": "hostname",
          "type": "bytes32"
        }
      ],
      "name": "chunkServerJoin",
      "outputs": [],
      "payable": false,
      "stateMutability": "nonpayable",
      "type": "function"
    },
    {
      "constant": true,
      "inputs": [
        {
          "name": "songId",
          "type": "uint32"
        }
      ],
      "name": "getListingName",
      "outputs": [
        {
          "name": "",
          "type": "bytes32"
        }
      ],
      "payable": false,
      "stateMutability": "view",
      "type": "function"
    },
    {
      "constant": false,
      "inputs": [
        {
          "name": "song",
          "type": "uint32"
        },
        {
          "name": "hashes",
          "type": "bytes32[]"
        },
        {
          "name": "hostname",
          "type": "bytes32"
        }
      ],
      "name": "publishChunks",
      "outputs": [],
      "payable": false,
      "stateMutability": "nonpayable",
      "type": "function"
    },
    {
      "constant": false,
      "inputs": [
        {
          "name": "cost",
          "type": "uint32"
        },
        {
          "name": "format",
          "type": "uint32"
        },
        {
          "name": "filename",
          "type": "bytes32"
        },
        {
          "name": "title",
          "type": "bytes32"
        },
        {
          "name": "artist",
          "type": "bytes32"
        },
        {
          "name": "album",
          "type": "bytes32"
        },
        {
          "name": "genre",
          "type": "bytes32"
        },
        {
          "name": "year",
          "type": "uint32"
        },
        {
          "name": "length",
          "type": "uint32"
        },
        {
          "name": "numChunks",
          "type": "uint32"
        }
      ],
      "name": "listSong",
      "outputs": [
        {
          "name": "",
          "type": "bytes32"
        }
      ],
      "payable": false,
      "stateMutability": "nonpayable",
      "type": "function"
    },
    {
      "constant": false,
      "inputs": [
        {
          "name": "song",
          "type": "uint32"
        }
      ],
      "name": "purchaseSong",
      "outputs": [],
      "payable": true,
      "stateMutability": "payable",
      "type": "function"
    },
    {
      "inputs": [],
      "payable": false,
      "stateMutability": "nonpayable",
      "type": "constructor"
    },
    {
      "anonymous": false,
      "inputs": [
        {
          "indexed": false,
          "name": "lister",
          "type": "address"
        },
        {
          "indexed": false,
          "name": "songId",
          "type": "uint32"
        }
      ],
      "name": "SongListed",
      "type": "event"
    },
    {
      "anonymous": false,
      "inputs": [
        {
          "indexed": false,
          "name": "songId",
          "type": "uint32"
        }
      ],
      "name": "SongPublished",
      "type": "event"
    },
    {
      "anonymous": false,
      "inputs": [
        {
          "indexed": false,
          "name": "ch1",
          "type": "uint256"
        },
        {
          "indexed": false,
          "name": "ch2",
          "type": "uint256"
        },
        {
          "indexed": false,
          "name": "chunkServers",
          "type": "bytes32[]"
        }
      ],
      "name": "RandomnessReady",
      "type": "event"
    },
    {
      "anonymous": false,
      "inputs": [
        {
          "indexed": false,
          "name": "buyer",
          "type": "address"
        },
        {
          "indexed": false,
          "name": "songId",
          "type": "uint32"
        },
        {
          "indexed": false,
          "name": "seller",
          "type": "bytes32"
        },
        {
          "indexed": false,
          "name": "hashes",
          "type": "bytes32[]"
        },
        {
          "indexed": false,
          "name": "chunkservers",
          "type": "bytes32[]"
        }
      ],
      "name": "ListingPurchased",
      "type": "event"
    }
  ],
  "bytecode": "0x606060405260008060006101000a81548163ffffffff021916908363ffffffff16021790555060008060046101000a81548163ffffffff021916908363ffffffff160217905550341561005157600080fd5b611470806100606000396000f3006060604052600436106100ba576000357c0100000000000000000000000000000000000000000000000000000000900463ffffffff1680630d7bb7e0146100bf5780631cc42078146101665780633ebdfda11461019b5780637b2d3833146102555780637f5bd03c1461028a5780638951546b146102cb5780639afef5ab14610303578063c5425f0314610346578063c6b057621461036d578063c8cc36da146103b2578063ce9da53a14610428578063d47fa878146104ea575b600080fd5b34156100ca57600080fd5b6100e6600480803563ffffffff16906020019091905050610508565b60405180886000191660001916815260200187600019166000191681526020018660001916600019168152602001856000191660001916815260200184600019166000191681526020018363ffffffff1663ffffffff1681526020018263ffffffff1663ffffffff16815260200197505050505050505060405180910390f35b341561017157600080fd5b610179610680565b604051808263ffffffff1663ffffffff16815260200191505060405180910390f35b34156101a657600080fd5b6101c2600480803563ffffffff16906020019091905050610695565b60405180866000191660001916815260200185600019166000191681526020018460001916600019168152602001836000191660001916815260200180602001828103825283818151815260200191508051906020019060200280838360005b8381101561023d578082015181840152602081019050610222565b50505050905001965050505050505060405180910390f35b341561026057600080fd5b6102686107f5565b604051808263ffffffff1663ffffffff16815260200191505060405180910390f35b341561029557600080fd5b6102b1600480803563ffffffff1690602001909190505061080b565b604051808215151515815260200191505060405180910390f35b34156102d657600080fd5b610301600480803563ffffffff1690602001909190803563ffffffff16906020019091905050610844565b005b341561030e57600080fd5b6103446004808035600019169060200190919080356000191690602001909190803563ffffffff16906020019091905050610b8b565b005b341561035157600080fd5b61036b600480803560001916906020019091905050610ca1565b005b341561037857600080fd5b610394600480803563ffffffff16906020019091905050610d11565b60405180826000191660001916815260200191505060405180910390f35b34156103bd57600080fd5b610426600480803563ffffffff169060200190919080359060200190820180359060200190808060200260200160405190810160405280939291908181526020018383602002808284378201915050505050509190803560001916906020019091905050610d9b565b005b341561043357600080fd5b6104cc600480803563ffffffff1690602001909190803563ffffffff16906020019091908035600019169060200190919080356000191690602001909190803560001916906020019091908035600019169060200190919080356000191690602001909190803563ffffffff1690602001909190803563ffffffff1690602001909190803563ffffffff16906020019091905050610ee3565b60405180826000191660001916815260200191505060405180910390f35b610506600480803563ffffffff1690602001909190505061115d565b005b6000806000806000806000600260008963ffffffff1663ffffffff16815260200190815260200160002060020160059054906101000a900460ff161561067057600260008963ffffffff1663ffffffff168152602001908152602001600020600a0154600260008a63ffffffff1663ffffffff168152602001908152602001600020600b0154600260008b63ffffffff1663ffffffff168152602001908152602001600020600c0154600260008c63ffffffff1663ffffffff168152602001908152602001600020600d0154600260008d63ffffffff1663ffffffff168152602001908152602001600020600e0154600260008e63ffffffff1663ffffffff168152602001908152602001600020600f0160009054906101000a900463ffffffff16600260008f63ffffffff1663ffffffff168152602001908152602001600020600f0160049054906101000a900463ffffffff169650965096509650965096509650610675565b600080fd5b919395979092949650565b6000809054906101000a900463ffffffff1681565b6000806000806106a361138c565b600260008763ffffffff1663ffffffff16815260200190815260200160002060020160049054906101000a900460ff1615156106de57600080fd5b600260008763ffffffff1663ffffffff16815260200190815260200160002060040154600260008863ffffffff1663ffffffff16815260200190815260200160002060050154600260008963ffffffff1663ffffffff16815260200190815260200160002060060154600260008a63ffffffff1663ffffffff16815260200190815260200160002060070154600260008b63ffffffff1663ffffffff168152602001908152602001600020601001808054806020026020016040519081016040528092919081815260200182805480156107db57602002820191906000526020600020905b815460001916815260200190600101908083116107c3575b505050505090509450945094509450945091939590929450565b600060049054906101000a900463ffffffff1681565b6000600260008363ffffffff1663ffffffff16815260200190815260200160002060020160049054906101000a900460ff169050919050565b600080600080600460003373ffffffffffffffffffffffffffffffffffffffff1673ffffffffffffffffffffffffffffffffffffffff16815260200190815260200160002093506000846002015411151561089e57600080fd5b600260008663ffffffff1663ffffffff16815260200190815260200160002092508260020160059054906101000a900460ff1615156108dc57600080fd5b600163ffffffff168360110160009054906101000a900463ffffffff1663ffffffff1610151561090b57600080fd5b8260090160009054906101000a900460ff16151561092857600080fd5b82601001805480600101828161093e91906113a0565b9160005260206000209001600086600101549091909150906000191690555060018360110160008282829054906101000a900463ffffffff160192506101000a81548163ffffffff021916908363ffffffff160217905550858360110160049054906101000a900463ffffffff16188360110160046101000a81548163ffffffff021916908363ffffffff160217905550600163ffffffff168360110160009054906101000a900463ffffffff1663ffffffff16101515610a175760018360020160066101000a81548160ff0219169083151502179055505b8260020160069054906101000a900460ff168015610a4357508260090160009054906101000a900460ff165b15610b835782600801548360110160049054906101000a900463ffffffff1663ffffffff16811515610a7157fe5b06915082600801546104008460110160049054906101000a900463ffffffff160a63ffffffff16811515610aa157fe5b0690507f8a445dc89efcd64331492b32ac9aed78a82f112428a3d118b7c3355577a9196982828560100160405180848152602001838152602001806020018281038252838181548152602001915080548015610b2057602002820191906000526020600020905b81546000191681526020019060010190808311610b08575b505094505050505060405180910390a18260030182815481101515610b4157fe5b9060005260206000209001548360040181600019169055508260030181815481101515610b6a57fe5b9060005260206000209001548360050181600019169055505b505050505050565b6000600260008363ffffffff1663ffffffff16815260200190815260200160002090508060020160059054906101000a900460ff161515610bcb57600080fd5b8060090160009054906101000a900460ff161515610be857600080fd5b8060020160049054906101000a900460ff16151515610c0657600080fd5b3373ffffffffffffffffffffffffffffffffffffffff168160000160009054906101000a900473ffffffffffffffffffffffffffffffffffffffff1673ffffffffffffffffffffffffffffffffffffffff16141515610c6457600080fd5b838160060181600019169055508281600701816000191690555060018160020160046101000a81548160ff02191690831515021790555050505050565b6000600460003373ffffffffffffffffffffffffffffffffffffffff1673ffffffffffffffffffffffffffffffffffffffff168152602001908152602001600020905060008160020154141515610cf757600080fd5b818160010181600019169055504281600201819055505050565b6000600260008363ffffffff1663ffffffff16815260200190815260200160002060020160059054906101000a900460ff1615610d7257600260008363ffffffff1663ffffffff168152602001908152602001600020600b01549050610d96565b7f4d697373696e67207469746c650000000000000000000000000000000000000090505b919050565b6000600260008563ffffffff1663ffffffff16815260200190815260200160002090508060020160059054906101000a900460ff161515610ddb57600080fd5b8060020160049054906101000a900460ff16151515610df957600080fd5b3373ffffffffffffffffffffffffffffffffffffffff168160000160009054906101000a900473ffffffffffffffffffffffffffffffffffffffff1673ffffffffffffffffffffffffffffffffffffffff16141515610e5757600080fd5b82816003019080519060200190610e6f9291906113cc565b5060018160090160006101000a81548160ff021916908315150217905550818160010181600019169055507f56b61573497309c11e9f48b253ef372cd69486fb54eec56ddd5893ed31e5e36a84604051808263ffffffff1663ffffffff16815260200191505060405180910390a150505050565b60008060008060009054906101000a900463ffffffff16915060016000808282829054906101000a900463ffffffff160192506101000a81548163ffffffff021916908363ffffffff160217905550600260008363ffffffff1663ffffffff1681526020019081526020016000209050338160000160006101000a81548173ffffffffffffffffffffffffffffffffffffffff021916908373ffffffffffffffffffffffffffffffffffffffff1602179055508c8160020160006101000a81548163ffffffff021916908363ffffffff1602179055508363ffffffff16816008018190555060018160020160056101000a81548160ff0219169083151502179055508b8160090160016101000a81548163ffffffff021916908363ffffffff1602179055508a81600a0181600019169055508981600b0181600019169055508881600d0181600019169055508781600c0181600019169055508681600e0181600019169055508581600f0160006101000a81548163ffffffff021916908363ffffffff1602179055508481600f0160046101000a81548163ffffffff021916908363ffffffff16021790555060008160090160006101000a81548160ff021916908315150217905550848160110160046101000a81548163ffffffff021916908363ffffffff1602179055507f0d70d01361bbd38ad7a2823568565f1b587f3c2ef64da3a0c1f876863eb022623383604051808373ffffffffffffffffffffffffffffffffffffffff1673ffffffffffffffffffffffffffffffffffffffff1681526020018263ffffffff1663ffffffff1681526020019250505060405180910390a180600b0154925050509a9950505050505050505050565b6000600260008363ffffffff1663ffffffff16815260200190815260200160002090508060020160059054906101000a900460ff16151561119d57600080fd5b8060090160009054906101000a900460ff1615156111ba57600080fd5b8060020160049054906101000a900460ff1615156111d757600080fd5b8060020160009054906101000a900463ffffffff1663ffffffff16341115156111ff57600080fd5b7f84209b636b6c1d7ca794ed36393998d3488c3d96a75c1fbfa3b56f658749c5c8338383600101548460030185601001604051808673ffffffffffffffffffffffffffffffffffffffff1673ffffffffffffffffffffffffffffffffffffffff1681526020018563ffffffff1663ffffffff1681526020018460001916600019168152602001806020018060200183810383528581815481526020019150805480156112ce57602002820191906000526020600020905b815460001916815260200190600101908083116112b6575b5050838103825284818154815260200191508054801561131157602002820191906000526020600020905b815460001916815260200190600101908083116112f9575b505097505050505050505060405180910390a18060000160009054906101000a900473ffffffffffffffffffffffffffffffffffffffff1673ffffffffffffffffffffffffffffffffffffffff166108fc349081150290604051600060405180830381858888f19350505050151561138857600080fd5b5050565b602060405190810160405280600081525090565b8154818355818115116113c7578183600052602060002091820191016113c6919061141f565b5b505050565b82805482825590600052602060002090810192821561140e579160200282015b8281111561140d5782518290600019169055916020019190600101906113ec565b5b50905061141b919061141f565b5090565b61144191905b8082111561143d576000816000905550600101611425565b5090565b905600a165627a7a723058200ae650dead5bc12af3e00601e2a33733e4aac7142368883cf0e5d1db2602125a0029",
  "source": "pragma solidity ^0.4.18;\n\ncontract Catalog {\n\n  uint32 constant quorum = 1;\n  uint32 public nextSongIndexToAssign = 0;\n  uint32 public nextChunkServerIndexToAssign = 0;\n\n  mapping (uint32 => address) songIndexToOwner;\n  mapping (uint32 => Listing) songIndexToListing;\n  mapping (uint32 => ChunkServer) indexToChunkServer;\n  mapping (address => ChunkServer) addressToChunkServer;\n\n  event SongListed(address lister, uint32 songId);\n  event SongPublished(uint32 songId);\n  event RandomnessReady(uint ch1, uint ch2, bytes32[] chunkServers);\n  event ListingPurchased(address buyer, uint32 songId, bytes32 seller, bytes32[] hashes, bytes32[] chunkservers);\n\n  struct ChunkServer {\n    address account;\n    bytes32 hostname;\n    uint256 lastSeenTime;\n  }\n\n  struct Listing {\n    address seller;\n    bytes32 sellerHost;\n    /* cost is in wei */\n    uint32 cost;\n    bool isAvailable;\n    bool isListed;\n    bool randomnessReady;\n    bytes32[] chunkHashes;\n    bytes32 previewChunk1Hash;\n    bytes32 previewChunk2Hash;\n    bytes32 chunk1Key;\n    bytes32 chunk2Key;\n    uint numChunks;\n    bool hasChunks;\n\n    /* Song metadata */\n    // 0 is mp3\n    uint32 format;\n    bytes32 filename;\n\n    bytes32 title;\n    bytes32 album;\n    bytes32 artist;\n    bytes32 genre;\n    uint32 year;\n    uint32 length;\n\n    // not needed for now\n    //bytes32 albumArtist;\n    //bytes32 composer;\n    //int trackNum;\n    //int discNum;\n\n    /* ChunkServer info */\n    bytes32[] csSubmittedRandomness;\n    uint32 numRandomness;\n    uint32 randomness;\n  }\n\n  function getListingName(uint32 songId) public view returns (bytes32) {\n    if (songIndexToListing[songId].isListed) {\n        return songIndexToListing[songId].title;\n    } else {\n        return \"Missing title\";\n    }\n  }\n\n/*\n  function getListingInfo(uint32 songId) public view returns (address, uint32, bool) {\n    Listing storage listing = songIndexToListing[songId];\n    require(listing.isListed);\n    return (listing.seller, listing.cost, listing.isAvailable);\n  }\n*/\n  function getListingMetadata(uint32 songId) public view returns\n  (bytes32, bytes32, bytes32, bytes32, bytes32, uint32, uint32) {\n\n    if (songIndexToListing[songId].isListed) {\n    return (songIndexToListing[songId].filename, songIndexToListing[songId].title,\n      songIndexToListing[songId].album, songIndexToListing[songId].artist,\n      songIndexToListing[songId].genre, songIndexToListing[songId].year,\n      songIndexToListing[songId].length);\n\n    } else {\n      revert();\n    }\n\n  }\n  function Catalog() public {}\n\n  function listSong(uint32 cost, uint32 format, bytes32 filename, bytes32 title,\n    bytes32 artist, bytes32 album, bytes32 genre, uint32 year, uint32 length,\n    uint32 numChunks)\n    public returns (bytes32) {\n    uint32 newIndex = nextSongIndexToAssign;\n    nextSongIndexToAssign += 1;\n    Listing storage listing = songIndexToListing[newIndex];\n\n    listing.seller = msg.sender;\n    listing.cost = cost;\n    listing.numChunks = numChunks;\n\n    listing.isListed = true;\n    listing.format = format;\n    listing.filename = filename;\n    listing.title = title;\n    listing.artist = artist;\n    listing.album = album;\n    listing.genre = genre;\n    listing.year = year;\n    listing.length = length;\n    listing.hasChunks = false;\n    listing.randomness = length;\n\n    SongListed(msg.sender, newIndex);\n\n    return listing.title;\n  }\n\n  function chunkServerJoin(bytes32 hostname) public {\n    ChunkServer storage server = addressToChunkServer[msg.sender];\n    require(server.lastSeenTime == 0x0);\n    server.hostname = hostname;\n    server.lastSeenTime = now;\n  }\n\n  function chunkServerSubmitRandomness(uint32 randomness, uint32 song) public {\n    ChunkServer storage server = addressToChunkServer[msg.sender];\n    require(server.lastSeenTime > 0x0);\n    Listing storage listing = songIndexToListing[song];\n    require(listing.isListed);\n    require(listing.numRandomness < quorum);\n    require(listing.hasChunks);\n    listing.csSubmittedRandomness.push(server.hostname);\n    listing.numRandomness += 1;\n    listing.randomness = listing.randomness ^ randomness;\n\n    if (listing.numRandomness >= quorum) {\n        listing.randomnessReady = true;\n    }\n\n    if (listing.randomnessReady && listing.hasChunks) {\n      uint chunk1 = listing.randomness % listing.numChunks;\n      // bitshift for now I guess\n      uint chunk2 = (listing.randomness ** 1024) % listing.numChunks;\n    \n      RandomnessReady(chunk1, chunk2, listing.csSubmittedRandomness);\n\n      listing.previewChunk1Hash = listing.chunkHashes[chunk1];\n      listing.previewChunk2Hash = listing.chunkHashes[chunk2];\n    }\n  }\n\n  function publishChunks(uint32 song, bytes32[] hashes, bytes32 hostname) public {\n    Listing storage listing = songIndexToListing[song];\n    require(listing.isListed);\n    require(!listing.isAvailable);\n    require(listing.seller == msg.sender);\n    listing.chunkHashes = hashes;\n    listing.hasChunks = true;\n    listing.sellerHost = hostname;\n\n    SongPublished(song);\n\n    /*\n    if (listing.randomnessReady) {\n      uint chunk1 = listing.randomness % listing.numChunks;\n      // bitshift for now I guess\n      uint chunk2 = (listing.randomness ** 1024) % listing.numChunks;\n\n      listing.previewChunk1Hash = listing.chunkHashes[chunk1];\n      listing.previewChunk2Hash = listing.chunkHashes[chunk2];\n    }*/\n  }\n\n  function revealChunks(bytes32 key1, bytes32 key2, uint32 song) public {\n    Listing storage listing = songIndexToListing[song];\n    require(listing.isListed);\n    require(listing.hasChunks);\n    require(!listing.isAvailable);\n    require(listing.seller == msg.sender);\n\n    listing.chunk1Key = key1;\n    listing.chunk2Key = key2;\n\n    // TODO: should make sure chunkservers have the chunks first\n    listing.isAvailable = true;\n  }\n\n  function isListingAvailable(uint32 song) view public returns (bool) {\n    return songIndexToListing[song].isAvailable;\n  }\n\n  function purchaseSong(uint32 song) public payable {\n    Listing storage listing = songIndexToListing[song];\n    require(listing.isListed);\n    require(listing.hasChunks);\n    require(listing.isAvailable);\n\n    require(msg.value > listing.cost);\n    ListingPurchased(msg.sender, song, listing.sellerHost, listing.chunkHashes, listing.csSubmittedRandomness);\n    listing.seller.transfer(msg.value);\n\n  }\n\n  function getPreview(uint32 song) view public returns (bytes32, bytes32, bytes32, bytes32, bytes32[]) {\n    require(songIndexToListing[song].isAvailable);\n\n    return (songIndexToListing[song].previewChunk1Hash, songIndexToListing[song].previewChunk2Hash, songIndexToListing[song].chunk1Key, songIndexToListing[song].chunk2Key, songIndexToListing[song].csSubmittedRandomness);\n  }\n}\n",
  "sourcePath": "/Users/danielkapit/Documents/Commands/go/src/avocado/contracts/Catalog.sol",
  "compiler": {
    "name": "solc",
    "version": "0.4.18+commit.9cf6e910.Emscripten.clang"
  },
  "schemaVersion": "1.0.1",
  "updatedAt": "2018-05-09T03:27:40.569Z"
}