{
  "contractName": "Catalog",
  "abi": [
    {
      "constant": true,
      "inputs": [
        {
          "name": "songId",
          "type": "uint32"
        }
      ],
      "name": "getListingMetadata",
      "outputs": [
        {
          "name": "",
          "type": "bytes32"
        },
        {
          "name": "",
          "type": "bytes32"
        },
        {
          "name": "",
          "type": "bytes32"
        },
        {
          "name": "",
          "type": "bytes32"
        },
        {
          "name": "",
          "type": "bytes32"
        },
        {
          "name": "",
          "type": "uint32"
        },
        {
          "name": "",
          "type": "uint32"
        }
      ],
      "payable": false,
      "stateMutability": "view",
      "type": "function"
    },
    {
      "constant": true,
      "inputs": [],
      "name": "nextSongIndexToAssign",
      "outputs": [
        {
          "name": "",
          "type": "uint32"
        }
      ],
      "payable": false,
      "stateMutability": "view",
      "type": "function"
    },
    {
      "constant": true,
      "inputs": [],
      "name": "nextChunkServerIndexToAssign",
      "outputs": [
        {
          "name": "",
          "type": "uint32"
        }
      ],
      "payable": false,
      "stateMutability": "view",
      "type": "function"
    },
    {
      "constant": true,
      "inputs": [
        {
          "name": "song",
          "type": "uint32"
        }
      ],
      "name": "isListingAvailable",
      "outputs": [
        {
          "name": "",
          "type": "bool"
        }
      ],
      "payable": false,
      "stateMutability": "view",
      "type": "function"
    },
    {
      "constant": false,
      "inputs": [
        {
          "name": "randomness",
          "type": "uint32"
        },
        {
          "name": "song",
          "type": "uint32"
        }
      ],
      "name": "chunkServerSubmitRandomness",
      "outputs": [],
      "payable": false,
      "stateMutability": "nonpayable",
      "type": "function"
    },
    {
      "constant": false,
      "inputs": [
        {
          "name": "key1",
          "type": "bytes32"
        },
        {
          "name": "key2",
          "type": "bytes32"
        },
        {
          "name": "song",
          "type": "uint32"
        }
      ],
      "name": "revealChunks",
      "outputs": [],
      "payable": false,
      "stateMutability": "nonpayable",
      "type": "function"
    },
    {
      "constant": false,
      "inputs": [
        {
          "name": "song",
          "type": "uint32"
        },
        {
          "name": "hashes",
          "type": "bytes32[]"
        }
      ],
      "name": "publishChunks",
      "outputs": [],
      "payable": false,
      "stateMutability": "nonpayable",
      "type": "function"
    },
    {
      "constant": false,
      "inputs": [
        {
          "name": "hostname",
          "type": "bytes32"
        }
      ],
      "name": "chunkServerJoin",
      "outputs": [],
      "payable": false,
      "stateMutability": "nonpayable",
      "type": "function"
    },
    {
      "constant": true,
      "inputs": [
        {
          "name": "songId",
          "type": "uint32"
        }
      ],
      "name": "getListingName",
      "outputs": [
        {
          "name": "",
          "type": "bytes32"
        }
      ],
      "payable": false,
      "stateMutability": "view",
      "type": "function"
    },
    {
      "constant": false,
      "inputs": [
        {
          "name": "cost",
          "type": "uint32"
        },
        {
          "name": "format",
          "type": "uint32"
        },
        {
          "name": "filename",
          "type": "bytes32"
        },
        {
          "name": "title",
          "type": "bytes32"
        },
        {
          "name": "artist",
          "type": "bytes32"
        },
        {
          "name": "album",
          "type": "bytes32"
        },
        {
          "name": "genre",
          "type": "bytes32"
        },
        {
          "name": "year",
          "type": "uint32"
        },
        {
          "name": "length",
          "type": "uint32"
        },
        {
          "name": "numChunks",
          "type": "uint32"
        }
      ],
      "name": "listSong",
      "outputs": [
        {
          "name": "",
          "type": "bytes32"
        }
      ],
      "payable": false,
      "stateMutability": "nonpayable",
      "type": "function"
    },
    {
      "constant": false,
      "inputs": [
        {
          "name": "song",
          "type": "uint32"
        }
      ],
      "name": "purchaseSong",
      "outputs": [],
      "payable": true,
      "stateMutability": "payable",
      "type": "function"
    },
    {
      "inputs": [],
      "payable": false,
      "stateMutability": "nonpayable",
      "type": "constructor"
    },
    {
      "anonymous": false,
      "inputs": [
        {
          "indexed": false,
          "name": "lister",
          "type": "address"
        },
        {
          "indexed": false,
          "name": "songId",
          "type": "uint32"
        }
      ],
      "name": "SongListed",
      "type": "event"
    },
    {
      "anonymous": false,
      "inputs": [
        {
          "indexed": false,
          "name": "songId",
          "type": "uint32"
        }
      ],
      "name": "SongPublished",
      "type": "event"
    },
    {
      "anonymous": false,
      "inputs": [
        {
          "indexed": false,
          "name": "ch1",
          "type": "uint256"
        },
        {
          "indexed": false,
          "name": "ch2",
          "type": "uint256"
        },
        {
          "indexed": false,
          "name": "chunkServers",
          "type": "bytes32[]"
        }
      ],
      "name": "RandomnessReady",
      "type": "event"
    },
    {
      "anonymous": false,
      "inputs": [
        {
          "indexed": false,
          "name": "buyer",
          "type": "address"
        },
        {
          "indexed": false,
          "name": "songId",
          "type": "uint32"
        },
        {
          "indexed": false,
          "name": "seller",
          "type": "address"
        }
      ],
      "name": "ListingPurchased",
      "type": "event"
    }
  ],
  "bytecode": "0x606060405260008060006101000a81548163ffffffff021916908363ffffffff16021790555060008060046101000a81548163ffffffff021916908363ffffffff160217905550341561005157600080fd5b6111c6806100606000396000f3006060604052600436106100af576000357c0100000000000000000000000000000000000000000000000000000000900463ffffffff1680630d7bb7e0146100b45780631cc420781461015b5780637b2d3833146101905780637f5bd03c146101c55780638951546b146102065780639afef5ab1461023e578063a05c17b414610281578063c5425f03146102ea578063c6b0576214610311578063ce9da53a14610356578063d47fa87814610418575b600080fd5b34156100bf57600080fd5b6100db600480803563ffffffff16906020019091905050610436565b60405180886000191660001916815260200187600019166000191681526020018660001916600019168152602001856000191660001916815260200184600019166000191681526020018363ffffffff1663ffffffff1681526020018263ffffffff1663ffffffff16815260200197505050505050505060405180910390f35b341561016657600080fd5b61016e6105ae565b604051808263ffffffff1663ffffffff16815260200191505060405180910390f35b341561019b57600080fd5b6101a36105c3565b604051808263ffffffff1663ffffffff16815260200191505060405180910390f35b34156101d057600080fd5b6101ec600480803563ffffffff169060200190919050506105d9565b604051808215151515815260200191505060405180910390f35b341561021157600080fd5b61023c600480803563ffffffff1690602001909190803563ffffffff16906020019091905050610612565b005b341561024957600080fd5b61027f6004808035600019169060200190919080356000191690602001909190803563ffffffff16906020019091905050610959565b005b341561028c57600080fd5b6102e8600480803563ffffffff1690602001909190803590602001908201803590602001908080602002602001604051908101604052809392919081815260200183836020028082843782019150505050505091905050610a6f565b005b34156102f557600080fd5b61030f600480803560001916906020019091905050610ba9565b005b341561031c57600080fd5b610338600480803563ffffffff16906020019091905050610c19565b60405180826000191660001916815260200191505060405180910390f35b341561036157600080fd5b6103fa600480803563ffffffff1690602001909190803563ffffffff16906020019091908035600019169060200190919080356000191690602001909190803560001916906020019091908035600019169060200190919080356000191690602001909190803563ffffffff1690602001909190803563ffffffff1690602001909190803563ffffffff16906020019091905050610ca3565b60405180826000191660001916815260200191505060405180910390f35b610434600480803563ffffffff16906020019091905050610f1d565b005b6000806000806000806000600260008963ffffffff1663ffffffff16815260200190815260200160002060000160199054906101000a900460ff161561059e57600260008963ffffffff1663ffffffff16815260200190815260200160002060080154600260008a63ffffffff1663ffffffff16815260200190815260200160002060090154600260008b63ffffffff1663ffffffff168152602001908152602001600020600a0154600260008c63ffffffff1663ffffffff168152602001908152602001600020600b0154600260008d63ffffffff1663ffffffff168152602001908152602001600020600c0154600260008e63ffffffff1663ffffffff168152602001908152602001600020600d0160009054906101000a900463ffffffff16600260008f63ffffffff1663ffffffff168152602001908152602001600020600d0160049054906101000a900463ffffffff1696509650965096509650965096506105a3565b600080fd5b919395979092949650565b6000809054906101000a900463ffffffff1681565b600060049054906101000a900463ffffffff1681565b6000600260008363ffffffff1663ffffffff16815260200190815260200160002060000160189054906101000a900460ff169050919050565b600080600080600460003373ffffffffffffffffffffffffffffffffffffffff1673ffffffffffffffffffffffffffffffffffffffff16815260200190815260200160002093506000846002015411151561066c57600080fd5b600260008663ffffffff1663ffffffff16815260200190815260200160002092508260000160199054906101000a900460ff1615156106aa57600080fd5b600163ffffffff1683600f0160009054906101000a900463ffffffff1663ffffffff161015156106d957600080fd5b8260070160009054906101000a900460ff1615156106f657600080fd5b82600e01805480600101828161070c91906110f6565b91600052602060002090016000866001015490919091509060001916905550600183600f0160008282829054906101000a900463ffffffff160192506101000a81548163ffffffff021916908363ffffffff1602179055508583600f0160049054906101000a900463ffffffff161883600f0160046101000a81548163ffffffff021916908363ffffffff160217905550600163ffffffff1683600f0160009054906101000a900463ffffffff1663ffffffff161015156107e557600183600001601a6101000a81548160ff0219169083151502179055505b82600001601a9054906101000a900460ff16801561081157508260070160009054906101000a900460ff165b1561095157826006015483600f0160049054906101000a900463ffffffff1663ffffffff1681151561083f57fe5b069150826006015461040084600f0160049054906101000a900463ffffffff160a63ffffffff1681151561086f57fe5b0690507f8a445dc89efcd64331492b32ac9aed78a82f112428a3d118b7c3355577a91969828285600e01604051808481526020018381526020018060200182810382528381815481526020019150805480156108ee57602002820191906000526020600020905b815460001916815260200190600101908083116108d6575b505094505050505060405180910390a1826001018281548110151561090f57fe5b906000526020600020900154836002018160001916905550826001018181548110151561093857fe5b9060005260206000209001548360030181600019169055505b505050505050565b6000600260008363ffffffff1663ffffffff16815260200190815260200160002090508060000160199054906101000a900460ff16151561099957600080fd5b8060070160009054906101000a900460ff1615156109b657600080fd5b8060000160189054906101000a900460ff161515156109d457600080fd5b3373ffffffffffffffffffffffffffffffffffffffff168160000160009054906101000a900473ffffffffffffffffffffffffffffffffffffffff1673ffffffffffffffffffffffffffffffffffffffff16141515610a3257600080fd5b838160040181600019169055508281600501816000191690555060018160000160186101000a81548160ff02191690831515021790555050505050565b6000600260008463ffffffff1663ffffffff16815260200190815260200160002090508060000160199054906101000a900460ff161515610aaf57600080fd5b8060000160189054906101000a900460ff16151515610acd57600080fd5b3373ffffffffffffffffffffffffffffffffffffffff168160000160009054906101000a900473ffffffffffffffffffffffffffffffffffffffff1673ffffffffffffffffffffffffffffffffffffffff16141515610b2b57600080fd5b81816001019080519060200190610b43929190611122565b5060018160070160006101000a81548160ff0219169083151502179055507f56b61573497309c11e9f48b253ef372cd69486fb54eec56ddd5893ed31e5e36a83604051808263ffffffff1663ffffffff16815260200191505060405180910390a1505050565b6000600460003373ffffffffffffffffffffffffffffffffffffffff1673ffffffffffffffffffffffffffffffffffffffff168152602001908152602001600020905060008160020154141515610bff57600080fd5b818160010181600019169055504281600201819055505050565b6000600260008363ffffffff1663ffffffff16815260200190815260200160002060000160199054906101000a900460ff1615610c7a57600260008363ffffffff1663ffffffff168152602001908152602001600020600901549050610c9e565b7f4d697373696e67207469746c650000000000000000000000000000000000000090505b919050565b60008060008060009054906101000a900463ffffffff16915060016000808282829054906101000a900463ffffffff160192506101000a81548163ffffffff021916908363ffffffff160217905550600260008363ffffffff1663ffffffff1681526020019081526020016000209050338160000160006101000a81548173ffffffffffffffffffffffffffffffffffffffff021916908373ffffffffffffffffffffffffffffffffffffffff1602179055508c8160000160146101000a81548163ffffffff021916908363ffffffff1602179055508363ffffffff16816006018190555060018160000160196101000a81548160ff0219169083151502179055508b8160070160016101000a81548163ffffffff021916908363ffffffff1602179055508a816008018160001916905550898160090181600019169055508881600b0181600019169055508781600a0181600019169055508681600c0181600019169055508581600d0160006101000a81548163ffffffff021916908363ffffffff1602179055508481600d0160046101000a81548163ffffffff021916908363ffffffff16021790555060008160070160006101000a81548160ff0219169083151502179055508481600f0160046101000a81548163ffffffff021916908363ffffffff1602179055507f0d70d01361bbd38ad7a2823568565f1b587f3c2ef64da3a0c1f876863eb022623383604051808373ffffffffffffffffffffffffffffffffffffffff1673ffffffffffffffffffffffffffffffffffffffff1681526020018263ffffffff1663ffffffff1681526020019250505060405180910390a18060090154925050509a9950505050505050505050565b6000600260008363ffffffff1663ffffffff16815260200190815260200160002090508060000160199054906101000a900460ff161515610f5d57600080fd5b8060070160009054906101000a900460ff161515610f7a57600080fd5b8060000160189054906101000a900460ff161515610f9757600080fd5b8060000160149054906101000a900463ffffffff1663ffffffff1634111515610fbf57600080fd5b7f2679fb824c62e66b5e0864eec9e8414db3c0eca5667c2769e4d54ae57603f89933838360000160009054906101000a900473ffffffffffffffffffffffffffffffffffffffff16604051808473ffffffffffffffffffffffffffffffffffffffff1673ffffffffffffffffffffffffffffffffffffffff1681526020018363ffffffff1663ffffffff1681526020018273ffffffffffffffffffffffffffffffffffffffff1673ffffffffffffffffffffffffffffffffffffffff168152602001935050505060405180910390a18060000160009054906101000a900473ffffffffffffffffffffffffffffffffffffffff1673ffffffffffffffffffffffffffffffffffffffff166108fc349081150290604051600060405180830381858888f1935050505015156110f257600080fd5b5050565b81548183558181151161111d5781836000526020600020918201910161111c9190611175565b5b505050565b828054828255906000526020600020908101928215611164579160200282015b82811115611163578251829060001916905591602001919060010190611142565b5b5090506111719190611175565b5090565b61119791905b8082111561119357600081600090555060010161117b565b5090565b905600a165627a7a7230582049a727d9c368619193cc9bf239bf41e3e292751b49e3498e60aaaa5414d0be970029",
  "source": "pragma solidity ^0.4.18;\n\ncontract Catalog {\n\n  uint32 constant quorum = 1;\n  uint32 public nextSongIndexToAssign = 0;\n  uint32 public nextChunkServerIndexToAssign = 0;\n\n  mapping (uint32 => address) songIndexToOwner;\n  mapping (uint32 => Listing) songIndexToListing;\n  mapping (uint32 => ChunkServer) indexToChunkServer;\n  mapping (address => ChunkServer) addressToChunkServer;\n\n  event SongListed(address lister, uint32 songId);\n  event SongPublished(uint32 songId);\n  event RandomnessReady(uint ch1, uint ch2, bytes32[] chunkServers);\n  event ListingPurchased(address buyer, uint32 songId, address seller);\n\n  struct ChunkServer {\n    address account;\n    bytes32 hostname;\n    uint256 lastSeenTime;\n  }\n\n  struct Listing {\n    address seller;\n    /* cost is in wei */\n    uint32 cost;\n    bool isAvailable;\n    bool isListed;\n    bool randomnessReady;\n    bytes32[] chunkHashes;\n    bytes32 previewChunk1Hash;\n    bytes32 previewChunk2Hash;\n    bytes32 chunk1Key;\n    bytes32 chunk2Key;\n    uint numChunks;\n    bool hasChunks;\n\n    /* Song metadata */\n    // 0 is mp3\n    uint32 format;\n    bytes32 filename;\n\n    bytes32 title;\n    bytes32 album;\n    bytes32 artist;\n    bytes32 genre;\n    uint32 year;\n    uint32 length;\n\n    // not needed for now\n    //bytes32 albumArtist;\n    //bytes32 composer;\n    //int trackNum;\n    //int discNum;\n\n    /* ChunkServer info */\n    bytes32[] csSubmittedRandomness;\n    uint32 numRandomness;\n    uint32 randomness;\n  }\n\n  function getListingName(uint32 songId) public view returns (bytes32) {\n    if (songIndexToListing[songId].isListed) {\n        return songIndexToListing[songId].title;\n    } else {\n        return \"Missing title\";\n    }\n  }\n\n/*\n  function getListingInfo(uint32 songId) public view returns (address, uint32, bool) {\n    Listing storage listing = songIndexToListing[songId];\n    require(listing.isListed);\n    return (listing.seller, listing.cost, listing.isAvailable);\n  }\n*/\n  function getListingMetadata(uint32 songId) public view returns\n  (bytes32, bytes32, bytes32, bytes32, bytes32, uint32, uint32) {\n\n    if (songIndexToListing[songId].isListed) {\n    return (songIndexToListing[songId].filename, songIndexToListing[songId].title,\n      songIndexToListing[songId].album, songIndexToListing[songId].artist,\n      songIndexToListing[songId].genre, songIndexToListing[songId].year,\n      songIndexToListing[songId].length);\n\n    } else {\n      revert();\n    }\n\n  }\n  function Catalog() public {}\n\n  function listSong(uint32 cost, uint32 format, bytes32 filename, bytes32 title,\n    bytes32 artist, bytes32 album, bytes32 genre, uint32 year, uint32 length,\n    uint32 numChunks)\n    public returns (bytes32) {\n    uint32 newIndex = nextSongIndexToAssign;\n    nextSongIndexToAssign += 1;\n    Listing storage listing = songIndexToListing[newIndex];\n\n    listing.seller = msg.sender;\n    listing.cost = cost;\n    listing.numChunks = numChunks;\n\n    listing.isListed = true;\n    listing.format = format;\n    listing.filename = filename;\n    listing.title = title;\n    listing.artist = artist;\n    listing.album = album;\n    listing.genre = genre;\n    listing.year = year;\n    listing.length = length;\n    listing.hasChunks = false;\n    listing.randomness = length;\n\n    SongListed(msg.sender, newIndex);\n\n    return listing.title;\n  }\n\n  function chunkServerJoin(bytes32 hostname) public {\n    ChunkServer storage server = addressToChunkServer[msg.sender];\n    require(server.lastSeenTime == 0x0);\n    server.hostname = hostname;\n    server.lastSeenTime = now;\n  }\n\n  function chunkServerSubmitRandomness(uint32 randomness, uint32 song) public {\n    ChunkServer storage server = addressToChunkServer[msg.sender];\n    require(server.lastSeenTime > 0x0);\n    Listing storage listing = songIndexToListing[song];\n    require(listing.isListed);\n    require(listing.numRandomness < quorum);\n    require(listing.hasChunks);\n    listing.csSubmittedRandomness.push(server.hostname);\n    listing.numRandomness += 1;\n    listing.randomness = listing.randomness ^ randomness;\n\n    if (listing.numRandomness >= quorum) {\n        listing.randomnessReady = true;\n    }\n\n    if (listing.randomnessReady && listing.hasChunks) {\n      uint chunk1 = listing.randomness % listing.numChunks;\n      // bitshift for now I guess\n      uint chunk2 = (listing.randomness ** 1024) % listing.numChunks;\n    \n      RandomnessReady(chunk1, chunk2, listing.csSubmittedRandomness);\n\n      listing.previewChunk1Hash = listing.chunkHashes[chunk1];\n      listing.previewChunk2Hash = listing.chunkHashes[chunk2];\n    }\n  }\n\n  function publishChunks(uint32 song, bytes32[] hashes) public {\n    Listing storage listing = songIndexToListing[song];\n    require(listing.isListed);\n    require(!listing.isAvailable);\n    require(listing.seller == msg.sender);\n    listing.chunkHashes = hashes;\n    listing.hasChunks = true;\n\n    SongPublished(song);\n\n    /*\n    if (listing.randomnessReady) {\n      uint chunk1 = listing.randomness % listing.numChunks;\n      // bitshift for now I guess\n      uint chunk2 = (listing.randomness ** 1024) % listing.numChunks;\n\n      listing.previewChunk1Hash = listing.chunkHashes[chunk1];\n      listing.previewChunk2Hash = listing.chunkHashes[chunk2];\n    }*/\n  }\n\n  function revealChunks(bytes32 key1, bytes32 key2, uint32 song) public {\n    Listing storage listing = songIndexToListing[song];\n    require(listing.isListed);\n    require(listing.hasChunks);\n    require(!listing.isAvailable);\n    require(listing.seller == msg.sender);\n\n    listing.chunk1Key = key1;\n    listing.chunk2Key = key2;\n\n    // TODO: should make sure chunkservers have the chunks first\n    listing.isAvailable = true;\n  }\n\n  function isListingAvailable(uint32 song) view public returns (bool) {\n    return songIndexToListing[song].isAvailable;\n  }\n\n  function purchaseSong(uint32 song) public payable {\n    Listing storage listing = songIndexToListing[song];\n    require(listing.isListed);\n    require(listing.hasChunks);\n    require(listing.isAvailable);\n\n    require(msg.value > listing.cost);\n    ListingPurchased(msg.sender, song, listing.seller);\n    listing.seller.transfer(msg.value);\n\n  }\n\n}\n",
  "sourcePath": "/Users/danielkapit/Documents/Commands/go/src/avocado/contracts/Catalog.sol",
  "compiler": {
    "name": "solc",
    "version": "0.4.18+commit.9cf6e910.Emscripten.clang"
  },
  "schemaVersion": "1.0.1",
  "updatedAt": "2018-05-08T21:03:06.614Z"
}