{
  "contractName": "Catalog",
  "abi": [
    {
      "constant": true,
      "inputs": [
        {
          "name": "songId",
          "type": "uint32"
        }
      ],
      "name": "getListingMetadata",
      "outputs": [
        {
          "name": "",
          "type": "bytes32"
        },
        {
          "name": "",
          "type": "bytes32"
        },
        {
          "name": "",
          "type": "bytes32"
        },
        {
          "name": "",
          "type": "bytes32"
        },
        {
          "name": "",
          "type": "bytes32"
        },
        {
          "name": "",
          "type": "uint32"
        },
        {
          "name": "",
          "type": "uint32"
        }
      ],
      "payable": false,
      "stateMutability": "view",
      "type": "function"
    },
    {
      "constant": true,
      "inputs": [],
      "name": "nextSongIndexToAssign",
      "outputs": [
        {
          "name": "",
          "type": "uint32"
        }
      ],
      "payable": false,
      "stateMutability": "view",
      "type": "function"
    },
    {
      "constant": true,
      "inputs": [],
      "name": "nextChunkServerIndexToAssign",
      "outputs": [
        {
          "name": "",
          "type": "uint32"
        }
      ],
      "payable": false,
      "stateMutability": "view",
      "type": "function"
    },
    {
      "constant": false,
      "inputs": [
        {
          "name": "key1",
          "type": "bytes32"
        },
        {
          "name": "key2",
          "type": "bytes32"
        },
        {
          "name": "song",
          "type": "uint32"
        }
      ],
      "name": "revealChunks",
      "outputs": [],
      "payable": false,
      "stateMutability": "nonpayable",
      "type": "function"
    },
    {
      "constant": false,
      "inputs": [
        {
          "name": "randomness",
          "type": "uint256"
        },
        {
          "name": "song",
          "type": "uint32"
        }
      ],
      "name": "chunkServerSubmitRandomness",
      "outputs": [],
      "payable": false,
      "stateMutability": "nonpayable",
      "type": "function"
    },
    {
      "constant": false,
      "inputs": [
        {
          "name": "hostname",
          "type": "bytes32"
        }
      ],
      "name": "chunkServerJoin",
      "outputs": [],
      "payable": false,
      "stateMutability": "nonpayable",
      "type": "function"
    },
    {
      "constant": true,
      "inputs": [
        {
          "name": "songId",
          "type": "uint32"
        }
      ],
      "name": "getListingName",
      "outputs": [
        {
          "name": "",
          "type": "bytes32"
        }
      ],
      "payable": false,
      "stateMutability": "view",
      "type": "function"
    },
    {
      "constant": false,
      "inputs": [
        {
          "name": "cost",
          "type": "uint32"
        },
        {
          "name": "format",
          "type": "uint32"
        },
        {
          "name": "filename",
          "type": "bytes32"
        },
        {
          "name": "title",
          "type": "bytes32"
        },
        {
          "name": "artist",
          "type": "bytes32"
        },
        {
          "name": "album",
          "type": "bytes32"
        },
        {
          "name": "genre",
          "type": "bytes32"
        },
        {
          "name": "year",
          "type": "uint32"
        },
        {
          "name": "length",
          "type": "uint32"
        },
        {
          "name": "numChunks",
          "type": "uint32"
        }
      ],
      "name": "listSong",
      "outputs": [
        {
          "name": "",
          "type": "uint256"
        }
      ],
      "payable": false,
      "stateMutability": "nonpayable",
      "type": "function"
    },
    {
      "inputs": [],
      "payable": false,
      "stateMutability": "nonpayable",
      "type": "constructor"
    },
    {
      "anonymous": false,
      "inputs": [
        {
          "indexed": true,
          "name": "lister",
          "type": "address"
        },
        {
          "indexed": false,
          "name": "songId",
          "type": "uint32"
        }
      ],
      "name": "SongListed",
      "type": "event"
    }
  ],
  "bytecode": "0x606060405260008060006101000a81548163ffffffff021916908363ffffffff16021790555060008060046101000a81548163ffffffff021916908363ffffffff160217905550341561005157600080fd5b610b7b806100606000396000f30060606040526004361061008e576000357c0100000000000000000000000000000000000000000000000000000000900463ffffffff1680630d7bb7e0146100935780631cc420781461013a5780637b2d38331461016f5780639afef5ab146101a4578063a0f225a3146101e7578063c5425f0314610219578063c6b0576214610240578063ce9da53a14610285575b600080fd5b341561009e57600080fd5b6100ba600480803563ffffffff1690602001909190505061033f565b60405180886000191660001916815260200187600019166000191681526020018660001916600019168152602001856000191660001916815260200184600019166000191681526020018363ffffffff1663ffffffff1681526020018263ffffffff1663ffffffff16815260200197505050505050505060405180910390f35b341561014557600080fd5b61014d6104b7565b604051808263ffffffff1663ffffffff16815260200191505060405180910390f35b341561017a57600080fd5b6101826104cc565b604051808263ffffffff1663ffffffff16815260200191505060405180910390f35b34156101af57600080fd5b6101e56004808035600019169060200190919080356000191690602001909190803563ffffffff169060200190919050506104e2565b005b34156101f257600080fd5b610217600480803590602001909190803563ffffffff169060200190919050506105db565b005b341561022457600080fd5b61023e600480803560001916906020019091905050610804565b005b341561024b57600080fd5b610267600480803563ffffffff16906020019091905050610874565b60405180826000191660001916815260200191505060405180910390f35b341561029057600080fd5b610329600480803563ffffffff1690602001909190803563ffffffff16906020019091908035600019169060200190919080356000191690602001909190803560001916906020019091908035600019169060200190919080356000191690602001909190803563ffffffff1690602001909190803563ffffffff1690602001909190803563ffffffff169060200190919050506108df565b6040518082815260200191505060405180910390f35b6000806000806000806000600260008963ffffffff1663ffffffff16815260200190815260200160002060000160199054906101000a900460ff16156104a757600260008963ffffffff1663ffffffff16815260200190815260200160002060080154600260008a63ffffffff1663ffffffff16815260200190815260200160002060090154600260008b63ffffffff1663ffffffff168152602001908152602001600020600a0154600260008c63ffffffff1663ffffffff168152602001908152602001600020600b0154600260008d63ffffffff1663ffffffff168152602001908152602001600020600c0154600260008e63ffffffff1663ffffffff168152602001908152602001600020600d0160009054906101000a900463ffffffff16600260008f63ffffffff1663ffffffff168152602001908152602001600020600d0160049054906101000a900463ffffffff1696509650965096509650965096506104ac565b600080fd5b919395979092949650565b6000809054906101000a900463ffffffff1681565b600060049054906101000a900463ffffffff1681565b6000600260008363ffffffff1663ffffffff16815260200190815260200160002090508060000160199054906101000a900460ff16151561052257600080fd5b8060000160189054906101000a900460ff1615151561054057600080fd5b3373ffffffffffffffffffffffffffffffffffffffff168160000160009054906101000a900473ffffffffffffffffffffffffffffffffffffffff1673ffffffffffffffffffffffffffffffffffffffff1614151561059e57600080fd5b838160040181600019169055508281600501816000191690555060018160000160186101000a81548160ff02191690831515021790555050505050565b600080600080600460003373ffffffffffffffffffffffffffffffffffffffff1673ffffffffffffffffffffffffffffffffffffffff16815260200190815260200160002093506000846002015411151561063557600080fd5b600260008663ffffffff1663ffffffff16815260200190815260200160002092508260000160199054906101000a900460ff16151561067357600080fd5b600363ffffffff1683600f0160009054906101000a900463ffffffff1663ffffffff161015156106a257600080fd5b82600e0180548060010182816106b89190610afe565b9160005260206000209001600033909190916101000a81548173ffffffffffffffffffffffffffffffffffffffff021916908373ffffffffffffffffffffffffffffffffffffffff16021790555050600183600f0160008282829054906101000a900463ffffffff160192506101000a81548163ffffffff021916908363ffffffff160217905550858360100154188360100181905550600363ffffffff1683600f0160009054906101000a900463ffffffff1663ffffffff161015156107fc578260060154836010015481151561078c57fe5b069150826006015461040084601001540a8115156107a657fe5b06905082600101828154811015156107ba57fe5b90600052602060002090015483600201816000191690555082600101818154811015156107e357fe5b9060005260206000209001548360030181600019169055505b505050505050565b6000600460003373ffffffffffffffffffffffffffffffffffffffff1673ffffffffffffffffffffffffffffffffffffffff16815260200190815260200160002090506000816002015414151561085a57600080fd5b818160010181600019169055504281600201819055505050565b6000600260008363ffffffff1663ffffffff16815260200190815260200160002060000160199054906101000a900460ff16156108d557600260008363ffffffff1663ffffffff1681526020019081526020016000206009015490506108da565b600090505b919050565b60008060008060009054906101000a900463ffffffff16915060016000808282829054906101000a900463ffffffff160192506101000a81548163ffffffff021916908363ffffffff160217905550600260008363ffffffff1663ffffffff1681526020019081526020016000209050338160000160006101000a81548173ffffffffffffffffffffffffffffffffffffffff021916908373ffffffffffffffffffffffffffffffffffffffff1602179055508c8160000160146101000a81548163ffffffff021916908363ffffffff1602179055508363ffffffff16816006018190555060018160000160196101000a81548160ff0219169083151502179055508b8160070160006101000a81548163ffffffff021916908363ffffffff1602179055508a816008018160001916905550898160090181600019169055508881600b0181600019169055508781600a0181600019169055508681600c0181600019169055508581600d0160006101000a81548163ffffffff021916908363ffffffff1602179055508481600d0160046101000a81548163ffffffff021916908363ffffffff1602179055503373ffffffffffffffffffffffffffffffffffffffff167f0d70d01361bbd38ad7a2823568565f1b587f3c2ef64da3a0c1f876863eb0226283604051808263ffffffff1663ffffffff16815260200191505060405180910390a28163ffffffff16925050509a9950505050505050505050565b815481835581811511610b2557818360005260206000209182019101610b249190610b2a565b5b505050565b610b4c91905b80821115610b48576000816000905550600101610b30565b5090565b905600a165627a7a72305820de8b0b584d0de24cf6d76ec394681880a29084b3422095d4b80f0a3db6a19ae40029",
  "source": "pragma solidity ^0.4.18;\n\ncontract Catalog {\n\n  uint32 constant quorum = 3;\n  uint32 public nextSongIndexToAssign = 0;\n  uint32 public nextChunkServerIndexToAssign = 0;\n\n  mapping (uint32 => address) songIndexToOwner;\n  mapping (uint32 => Listing) songIndexToListing;\n  mapping (uint32 => ChunkServer) indexToChunkServer;\n  mapping (address => ChunkServer) addressToChunkServer;\n\n  event SongListed(address indexed lister, uint32 songId);\n\n  struct ChunkServer {\n    address account;\n    bytes32 hostname;\n    uint256 lastSeenTime;\n  }\n\n  struct Listing {\n    address seller;\n    uint32 cost;\n    bool isAvailable;\n    bool isListed;\n    bool isRandomnessReady;\n    bytes32[] chunkHashes;\n    bytes32 previewChunk1Hash;\n    bytes32 previewChunk2Hash;\n    bytes32 chunk1Key;\n    bytes32 chunk2Key;\n    uint numChunks;\n\n    /* Song metadata */\n    // 0 is mp3\n    uint32 format;\n    bytes32 filename;\n\n    bytes32 title;\n    bytes32 album;\n    bytes32 artist;\n    bytes32 genre;\n    uint32 year;\n    uint32 length;\n\n    // not needed for now\n    //bytes32 albumArtist;\n    //bytes32 composer;\n    //int trackNum;\n    //int discNum;\n\n    /* ChunkServer info */\n    address[] csSubmittedRandomness;\n    uint32 numRandomness;\n    uint256 randomness;\n  }\n\n  function getListingName(uint32 songId) public view returns (bytes32) {\n    if (songIndexToListing[songId].isListed) {\n        return songIndexToListing[songId].title;\n    } else {\n        return \"\";\n    }\n  }\n\n/*\n  function getListingInfo(uint32 songId) public view returns (address, uint32, bool) {\n    Listing storage listing = songIndexToListing[songId];\n    require(listing.isListed);\n    return (listing.seller, listing.cost, listing.isAvailable);\n  }\n*/\n  function getListingMetadata(uint32 songId) public view returns\n  (bytes32, bytes32, bytes32, bytes32, bytes32, uint32, uint32) {\n\n    if (songIndexToListing[songId].isListed) {\n    return (songIndexToListing[songId].filename, songIndexToListing[songId].title,\n      songIndexToListing[songId].album, songIndexToListing[songId].artist,\n      songIndexToListing[songId].genre, songIndexToListing[songId].year,\n      songIndexToListing[songId].length);\n\n    } else {\n      revert();\n    }\n\n  }\n\n  function Catalog() public {}\n\n  function listSong(uint32 cost, uint32 format, bytes32 filename, bytes32 title,\n    bytes32 artist, bytes32 album, bytes32 genre, uint32 year, uint32 length,\n    uint32 numChunks)\n    public returns (uint) {\n    uint32 newIndex = nextSongIndexToAssign;\n    nextSongIndexToAssign += 1;\n    Listing storage listing = songIndexToListing[newIndex];\n\n    // song has already been listed\n    //require(!isListed);\n    listing.seller = msg.sender;\n    listing.cost = cost;\n    listing.numChunks = numChunks;\n\n    listing.isListed = true;\n    listing.format = format;\n    listing.filename = filename;\n    listing.title = title;\n    listing.artist = artist;\n    listing.album = album;\n    listing.genre = genre;\n    listing.year = year;\n    listing.length = length;\n\n    SongListed(msg.sender, newIndex);\n\n    return newIndex;\n  }\n\n  function chunkServerJoin(bytes32 hostname) public {\n    ChunkServer storage server = addressToChunkServer[msg.sender];\n    require(server.lastSeenTime == 0x0);\n    server.hostname = hostname;\n    server.lastSeenTime = now;\n  }\n\n  function chunkServerSubmitRandomness(uint256 randomness, uint32 song) public {\n    ChunkServer storage server = addressToChunkServer[msg.sender];\n    require(server.lastSeenTime > 0x0);\n    Listing storage listing = songIndexToListing[song];\n    require(listing.isListed);\n    require(listing.numRandomness < quorum);\n    listing.csSubmittedRandomness.push(msg.sender);\n    listing.numRandomness += 1;\n    listing.randomness = listing.randomness ^ randomness;\n\n    if (listing.numRandomness >= quorum) {\n      uint256 chunk1 = listing.randomness % listing.numChunks;\n      // bitshift for now I guess\n      uint256 chunk2 = (listing.randomness ** 1024) % listing.numChunks;\n\n      listing.previewChunk1Hash = listing.chunkHashes[chunk1];\n      listing.previewChunk2Hash = listing.chunkHashes[chunk2];\n    }\n\n  }\n\n  function revealChunks(bytes32 key1, bytes32 key2, uint32 song) public {\n    Listing storage listing = songIndexToListing[song];\n    require(listing.isListed);\n    require(!listing.isAvailable);\n    require(listing.seller == msg.sender);\n\n    listing.chunk1Key = key1;\n    listing.chunk2Key = key2;\n\n    // TODO: should make sure chunkservers have the chunks first\n    listing.isAvailable = true;\n  }\n\n}\n",
  "sourcePath": "/Users/bekher/Development/avocado/contracts/Catalog.sol",
  "compiler": {
    "name": "solc",
    "version": "0.4.18+commit.9cf6e910.Emscripten.clang"
  },
  "schemaVersion": "1.0.1",
  "updatedAt": "2018-05-08T14:07:39.931Z"
}