{
  "contractName": "Test",
  "abi": [
    {
      "constant": true,
      "inputs": [],
      "name": "getNum",
      "outputs": [
        {
          "name": "",
          "type": "uint8"
        }
      ],
      "payable": false,
      "stateMutability": "view",
      "type": "function"
    },
    {
      "constant": true,
      "inputs": [],
      "name": "number",
      "outputs": [
        {
          "name": "",
          "type": "uint8"
        }
      ],
      "payable": false,
      "stateMutability": "view",
      "type": "function"
    },
    {
      "constant": false,
      "inputs": [
        {
          "name": "num",
          "type": "uint8"
        }
      ],
      "name": "setNum",
      "outputs": [],
      "payable": false,
      "stateMutability": "nonpayable",
      "type": "function"
    },
    {
      "inputs": [
        {
          "name": "num",
          "type": "uint8"
        }
      ],
      "payable": false,
      "stateMutability": "nonpayable",
      "type": "constructor"
    },
    {
      "anonymous": false,
      "inputs": [
        {
          "indexed": false,
          "name": "newNum",
          "type": "uint8"
        }
      ],
      "name": "Event",
      "type": "event"
    }
  ],
  "bytecode": "0x6060604052341561000f57600080fd5b6040516020806101f183398101604052808051906020019091905050806000806101000a81548160ff021916908360ff1602179055505061019c806100556000396000f300606060405260043610610057576000357c0100000000000000000000000000000000000000000000000000000000900463ffffffff16806367e0badb1461005c5780638381f58a1461008b578063dd3e9393146100ba575b600080fd5b341561006757600080fd5b61006f6100e0565b604051808260ff1660ff16815260200191505060405180910390f35b341561009657600080fd5b61009e6100f6565b604051808260ff1660ff16815260200191505060405180910390f35b34156100c557600080fd5b6100de600480803560ff16906020019091905050610108565b005b60008060009054906101000a900460ff16905090565b6000809054906101000a900460ff1681565b806000806101000a81548160ff021916908360ff1602179055507fd7c10b5778385e432bd8ae6dff5a7a1262ab8ecf35848e895a0e0d50d74175256000809054906101000a900460ff16604051808260ff1660ff16815260200191505060405180910390a1505600a165627a7a72305820fd2ca7eff5b0a316d855ec451777156202a258c8263b725b2042f5142d3f2aff0029",
  "source": "pragma solidity ^0.4.18;\n\ncontract Test {\n    uint8 public number;\n\n    event Event(uint8 newNum);\n\n    function Test(uint8 num) public {\n        number = num;\n    }\n\n    function getNum() view public returns (uint8) {\n        return number;\n    }\n\n    function setNum(uint8 num) public {\n        number = num;\n        Event(number);\n    }\n}\n",
  "sourcePath": "/Users/bekher/Development/avocado/contracts/Test.sol",
  "compiler": {
    "name": "solc",
    "version": "0.4.18+commit.9cf6e910.Emscripten.clang"
  },
  "schemaVersion": "1.0.1",
  "updatedAt": "2018-05-08T14:07:39.811Z"
}